{
  "contractName": "BeniTokenSale",
  "abi": [
    {
      "constant": true,
      "inputs": [],
      "name": "tokensSold",
      "outputs": [
        {
          "name": "",
          "type": "uint256"
        }
      ],
      "payable": false,
      "stateMutability": "view",
      "type": "function"
    },
    {
      "constant": true,
      "inputs": [],
      "name": "tokenContract",
      "outputs": [
        {
          "name": "",
          "type": "address"
        }
      ],
      "payable": false,
      "stateMutability": "view",
      "type": "function"
    },
    {
      "constant": true,
      "inputs": [],
      "name": "tokensBought",
      "outputs": [
        {
          "name": "",
          "type": "uint256"
        }
      ],
      "payable": false,
      "stateMutability": "view",
      "type": "function"
    },
    {
      "constant": true,
      "inputs": [],
      "name": "tokenPrice",
      "outputs": [
        {
          "name": "",
          "type": "uint256"
        }
      ],
      "payable": false,
      "stateMutability": "view",
      "type": "function"
    },
    {
      "inputs": [
        {
          "name": "_tokenContract",
          "type": "address"
        },
        {
          "name": "_tokenPrice",
          "type": "uint256"
        }
      ],
      "payable": false,
      "stateMutability": "nonpayable",
      "type": "constructor"
    },
    {
      "anonymous": false,
      "inputs": [
        {
          "indexed": false,
          "name": "_buyer",
          "type": "address"
        },
        {
          "indexed": false,
          "name": "_amount",
          "type": "uint256"
        }
      ],
      "name": "Sell",
      "type": "event"
    },
    {
      "constant": false,
      "inputs": [
        {
          "name": "_numberOfTokens",
          "type": "uint256"
        }
      ],
      "name": "buyTokens",
      "outputs": [],
      "payable": true,
      "stateMutability": "payable",
      "type": "function"
    },
    {
      "constant": false,
      "inputs": [],
      "name": "endSale",
      "outputs": [],
      "payable": false,
      "stateMutability": "nonpayable",
      "type": "function"
    },
    {
      "constant": false,
      "inputs": [],
      "name": "etherBalanceOfSC",
      "outputs": [
        {
          "name": "",
          "type": "uint256"
        }
      ],
      "payable": false,
      "stateMutability": "nonpayable",
      "type": "function"
    }
  ],
  "bytecode": "0x608060405234801561001057600080fd5b506040516040806108ab8339810180604052810190808051906020019092919080519060200190929190505050336000806101000a81548173ffffffffffffffffffffffffffffffffffffffff021916908373ffffffffffffffffffffffffffffffffffffffff16021790555081600160006101000a81548173ffffffffffffffffffffffffffffffffffffffff021916908373ffffffffffffffffffffffffffffffffffffffff1602179055508060028190555050506107d5806100d66000396000f300608060405260043610610083576000357c0100000000000000000000000000000000000000000000000000000000900463ffffffff1680633329efa5146100885780633610724e146100b3578063380d831b146100d3578063518ab2a8146100ea57806355a373d614610115578063732783ac1461016c5780637ff9b59614610197575b600080fd5b34801561009457600080fd5b5061009d6101c2565b6040518082815260200191505060405180910390f35b6100d1600480360381019080803590602001909291905050506101e1565b005b3480156100df57600080fd5b506100e8610489565b005b3480156100f657600080fd5b506100ff610741565b6040518082815260200191505060405180910390f35b34801561012157600080fd5b5061012a610747565b604051808273ffffffffffffffffffffffffffffffffffffffff1673ffffffffffffffffffffffffffffffffffffffff16815260200191505060405180910390f35b34801561017857600080fd5b5061018161076d565b6040518082815260200191505060405180910390f35b3480156101a357600080fd5b506101ac610773565b6040518082815260200191505060405180910390f35b60003073ffffffffffffffffffffffffffffffffffffffff1631905090565b6101ed81600254610779565b341415156101fa57600080fd5b80600160009054906101000a900473ffffffffffffffffffffffffffffffffffffffff1673ffffffffffffffffffffffffffffffffffffffff166370a08231306040518263ffffffff167c0100000000000000000000000000000000000000000000000000000000028152600401808273ffffffffffffffffffffffffffffffffffffffff1673ffffffffffffffffffffffffffffffffffffffff168152602001915050602060405180830381600087803b1580156102b857600080fd5b505af11580156102cc573d6000803e3d6000fd5b505050506040513d60208110156102e257600080fd5b81019080805190602001909291905050501015151561030057600080fd5b600160009054906101000a900473ffffffffffffffffffffffffffffffffffffffff1673ffffffffffffffffffffffffffffffffffffffff1663a9059cbb33836040518363ffffffff167c0100000000000000000000000000000000000000000000000000000000028152600401808373ffffffffffffffffffffffffffffffffffffffff1673ffffffffffffffffffffffffffffffffffffffff16815260200182815260200192505050602060405180830381600087803b1580156103c557600080fd5b505af11580156103d9573d6000803e3d6000fd5b505050506040513d60208110156103ef57600080fd5b8101908080519060200190929190505050151561040b57600080fd5b806003600082825401925050819055507f5e5e995ce3133561afceaa51a9a154d5db228cd7525d34df5185582c18d3df093382604051808373ffffffffffffffffffffffffffffffffffffffff1673ffffffffffffffffffffffffffffffffffffffff1681526020018281526020019250505060405180910390a150565b6000809054906101000a900473ffffffffffffffffffffffffffffffffffffffff1673ffffffffffffffffffffffffffffffffffffffff163373ffffffffffffffffffffffffffffffffffffffff161415156104e457600080fd5b600160009054906101000a900473ffffffffffffffffffffffffffffffffffffffff1673ffffffffffffffffffffffffffffffffffffffff1663a9059cbb6000809054906101000a900473ffffffffffffffffffffffffffffffffffffffff16600160009054906101000a900473ffffffffffffffffffffffffffffffffffffffff1673ffffffffffffffffffffffffffffffffffffffff166370a08231306040518263ffffffff167c0100000000000000000000000000000000000000000000000000000000028152600401808273ffffffffffffffffffffffffffffffffffffffff1673ffffffffffffffffffffffffffffffffffffffff168152602001915050602060405180830381600087803b15801561060157600080fd5b505af1158015610615573d6000803e3d6000fd5b505050506040513d602081101561062b57600080fd5b81019080805190602001909291905050506040518363ffffffff167c0100000000000000000000000000000000000000000000000000000000028152600401808373ffffffffffffffffffffffffffffffffffffffff1673ffffffffffffffffffffffffffffffffffffffff16815260200182815260200192505050602060405180830381600087803b1580156106c157600080fd5b505af11580156106d5573d6000803e3d6000fd5b505050506040513d60208110156106eb57600080fd5b8101908080519060200190929190505050151561070757600080fd5b6000809054906101000a900473ffffffffffffffffffffffffffffffffffffffff1673ffffffffffffffffffffffffffffffffffffffff16ff5b60035481565b600160009054906101000a900473ffffffffffffffffffffffffffffffffffffffff1681565b60045481565b60025481565b6000808214806107985750828283850292508281151561079557fe5b04145b15156107a357600080fd5b929150505600a165627a7a723058201073d96a01a069d1f4f9417f82a97d34828fee58be86acf4390237ab863c83a50029",
  "source": "pragma solidity ^0.4.2;\nimport \"./BeniToken.sol\";\n\ncontract BeniTokenSale {\n    address admin;\n    BeniToken public tokenContract;\n    uint256 public tokenPrice;\n    uint256 public tokensSold;\n    uint256 public tokensBought;\n\n    event Sell(address _buyer, uint256 _amount);\n\n    constructor(BeniToken _tokenContract, uint256 _tokenPrice) public {\n        admin = msg.sender;\n        tokenContract = _tokenContract;\n        tokenPrice = _tokenPrice;\n    }\n\n    function multiply(uint x, uint y) internal pure returns(uint z) {\n        require(y == 0 || (z = x * y) / y == x);\n    }\n\n\n    function buyTokens(uint256 _numberOfTokens) public payable {\n        require(msg.value == multiply(_numberOfTokens, tokenPrice));    // we want to be secure about this math here\n        require(tokenContract.balanceOf(this) >= _numberOfTokens);      // this keyword references the current contract\n        require(tokenContract.transfer(msg.sender, _numberOfTokens));\n\n        tokensSold += _numberOfTokens;\n\n        emit Sell(msg.sender, _numberOfTokens);\n    }\n\n    // function sellTokens(uint256 _numberOfTokens) public payable {\n\n    //     // Make sure that the seller has sufficient number of tokens to sell.\n    //     //require(tokenContract.balanceOf(msg.sender) >= _numberOfTokens)\n\n    //     // Make sure that the contract has supplied the right number of ether.\n\n    //     // Transfer the actual tokens.\n    //     require(tokenContract.transfer(this, _numberOfTokens));\n\n    //     // Increment the number of tokens bought\n    //     tokensBought += _numberOfTokens;\n\n    //     // Emit a Sell event\n    //     emit Sell(this, _numberOfTokens);             // the contract is the buyer in this case\n\n    // }\n\n    // Ending DappToken Sale\n    function endSale() public {\n        require(msg.sender == admin);\n        require(tokenContract.transfer(admin, tokenContract.balanceOf(this)));   // returns all unsold tokens to admin\n\n        selfdestruct(admin);\n    }\n\n    function etherBalanceOfSC() public returns(uint256) {\n        return address(this).balance;\n    }\n}\n",
  "sourcePath": "D:\\Projects\\Blockchain\\token_sale\\contracts\\BeniTokenSale.sol",
  "compiler": {
    "name": "solc",
    "version": "0.4.24+commit.e67f0147.Emscripten.clang"
  },
  "schemaVersion": "2.0.1",
  "updatedAt": "2018-12-11T16:02:40.465Z"
}